{
  "_format": "hh-sol-artifact-1",
  "contractName": "WICGAME",
  "sourceName": "contracts/WICGAME.sol",
  "abi": [
    {
      "inputs": [],
      "stateMutability": "nonpayable",
      "type": "constructor"
    },
    {
      "inputs": [],
      "name": "InvalidInitialization",
      "type": "error"
    },
    {
      "inputs": [],
      "name": "NotInitializing",
      "type": "error"
    },
    {
      "inputs": [
        {
          "internalType": "address",
          "name": "owner",
          "type": "address"
        }
      ],
      "name": "OwnableInvalidOwner",
      "type": "error"
    },
    {
      "inputs": [
        {
          "internalType": "address",
          "name": "account",
          "type": "address"
        }
      ],
      "name": "OwnableUnauthorizedAccount",
      "type": "error"
    },
    {
      "anonymous": false,
      "inputs": [
        {
          "indexed": true,
          "internalType": "address",
          "name": "user",
          "type": "address"
        },
        {
          "indexed": false,
          "internalType": "uint256",
          "name": "timestamp",
          "type": "uint256"
        }
      ],
      "name": "ChancesClaimed",
      "type": "event"
    },
    {
      "anonymous": false,
      "inputs": [
        {
          "indexed": false,
          "internalType": "uint64",
          "name": "version",
          "type": "uint64"
        }
      ],
      "name": "Initialized",
      "type": "event"
    },
    {
      "anonymous": false,
      "inputs": [
        {
          "indexed": true,
          "internalType": "address",
          "name": "previousOwner",
          "type": "address"
        },
        {
          "indexed": true,
          "internalType": "address",
          "name": "newOwner",
          "type": "address"
        }
      ],
      "name": "OwnershipTransferred",
      "type": "event"
    },
    {
      "inputs": [],
      "name": "COOLDOWN_PERIOD",
      "outputs": [
        {
          "internalType": "uint256",
          "name": "",
          "type": "uint256"
        }
      ],
      "stateMutability": "view",
      "type": "function"
    },
    {
      "inputs": [],
      "name": "claimDailyChances",
      "outputs": [],
      "stateMutability": "nonpayable",
      "type": "function"
    },
    {
      "inputs": [],
      "name": "initialize",
      "outputs": [],
      "stateMutability": "nonpayable",
      "type": "function"
    },
    {
      "inputs": [
        {
          "internalType": "address",
          "name": "",
          "type": "address"
        }
      ],
      "name": "lastClaimTime",
      "outputs": [
        {
          "internalType": "uint256",
          "name": "",
          "type": "uint256"
        }
      ],
      "stateMutability": "view",
      "type": "function"
    },
    {
      "inputs": [],
      "name": "owner",
      "outputs": [
        {
          "internalType": "address",
          "name": "",
          "type": "address"
        }
      ],
      "stateMutability": "view",
      "type": "function"
    },
    {
      "inputs": [],
      "name": "renounceOwnership",
      "outputs": [],
      "stateMutability": "nonpayable",
      "type": "function"
    },
    {
      "inputs": [],
      "name": "totalAllClaims",
      "outputs": [
        {
          "internalType": "uint256",
          "name": "",
          "type": "uint256"
        }
      ],
      "stateMutability": "view",
      "type": "function"
    },
    {
      "inputs": [
        {
          "internalType": "address",
          "name": "newOwner",
          "type": "address"
        }
      ],
      "name": "transferOwnership",
      "outputs": [],
      "stateMutability": "nonpayable",
      "type": "function"
    }
  ],
  "bytecode": "0x608060405234801561001057600080fd5b5061001f61002460201b60201c565b6101ab565b600061003461012860201b60201c565b90508060000160089054906101000a900460ff161561007f576040517ff92ee8a900000000000000000000000000000000000000000000000000000000815260040160405180910390fd5b67ffffffffffffffff80168160000160009054906101000a900467ffffffffffffffff1667ffffffffffffffff16146101255767ffffffffffffffff8160000160006101000a81548167ffffffffffffffff021916908367ffffffffffffffff1602179055507fc7f505b2f371ae2175ee4913f4499e1f2633a7b5936321eed1cdaeb6115181d267ffffffffffffffff60405161011c9190610190565b60405180910390a15b50565b60008061013961014260201b60201c565b90508091505090565b60007ff0c57e16840df040f15088dc2f81fe391c3923bec73e23a9662efc9c229c6a0060001b905090565b600067ffffffffffffffff82169050919050565b61018a8161016d565b82525050565b60006020820190506101a56000830184610181565b92915050565b610aa3806101ba6000396000f3fe608060405234801561001057600080fd5b50600436106100885760003560e01c80638129fc1c1161005b5780638129fc1c146100dd5780638da5cb5b146100e7578063b77cf9c614610105578063f2fde38b1461013557610088565b80634929be041461008d57806359d44945146100ab5780636e99d52f146100b5578063715018a6146100d3575b600080fd5b610095610151565b6040516100a291906107fc565b60405180910390f35b6100b3610157565b005b6100bd61029e565b6040516100ca91906107fc565b60405180910390f35b6100db6102a4565b005b6100e56102b8565b005b6100ef610446565b6040516100fc9190610858565b60405180910390f35b61011f600480360381019061011a91906108a4565b61047e565b60405161012c91906107fc565b60405180910390f35b61014f600480360381019061014a91906108a4565b610496565b005b60005481565b600061016161051c565b9050615460600160008373ffffffffffffffffffffffffffffffffffffffff1673ffffffffffffffffffffffffffffffffffffffff168152602001908152602001600020546101b09190610900565b4210156101f2576040517f08c379a00000000000000000000000000000000000000000000000000000000081526004016101e990610991565b60405180910390fd5b42600160008373ffffffffffffffffffffffffffffffffffffffff1673ffffffffffffffffffffffffffffffffffffffff16815260200190815260200160002081905550600080815480929190610248906109b1565b91905055508073ffffffffffffffffffffffffffffffffffffffff167faa64c002fef6e1ab458a9a827334d470ec193d1b3398f3df0467592a6c94eae44260405161029391906107fc565b60405180910390a250565b61546081565b6102ac610524565b6102b660006105ab565b565b60006102c2610682565b905060008160000160089054906101000a900460ff1615905060008260000160009054906101000a900467ffffffffffffffff1690506000808267ffffffffffffffff161480156103105750825b9050600060018367ffffffffffffffff16148015610345575060003073ffffffffffffffffffffffffffffffffffffffff163b145b905081158015610353575080155b1561038a576040517ff92ee8a900000000000000000000000000000000000000000000000000000000815260040160405180910390fd5b60018560000160006101000a81548167ffffffffffffffff021916908367ffffffffffffffff16021790555083156103da5760018560000160086101000a81548160ff0219169083151502179055505b6103e333610696565b831561043f5760008560000160086101000a81548160ff0219169083151502179055507fc7f505b2f371ae2175ee4913f4499e1f2633a7b5936321eed1cdaeb6115181d260016040516104369190610a52565b60405180910390a15b5050505050565b6000806104516106aa565b90508060000160009054906101000a900473ffffffffffffffffffffffffffffffffffffffff1691505090565b60016020528060005260406000206000915090505481565b61049e610524565b600073ffffffffffffffffffffffffffffffffffffffff168173ffffffffffffffffffffffffffffffffffffffff16036105105760006040517f1e4fbdf70000000000000000000000000000000000000000000000000000000081526004016105079190610858565b60405180910390fd5b610519816105ab565b50565b600033905090565b61052c61051c565b73ffffffffffffffffffffffffffffffffffffffff1661054a610446565b73ffffffffffffffffffffffffffffffffffffffff16146105a95761056d61051c565b6040517f118cdaa70000000000000000000000000000000000000000000000000000000081526004016105a09190610858565b60405180910390fd5b565b60006105b56106aa565b905060008160000160009054906101000a900473ffffffffffffffffffffffffffffffffffffffff169050828260000160006101000a81548173ffffffffffffffffffffffffffffffffffffffff021916908373ffffffffffffffffffffffffffffffffffffffff1602179055508273ffffffffffffffffffffffffffffffffffffffff168173ffffffffffffffffffffffffffffffffffffffff167f8be0079c531659141344cd1fd0a4f28419497f9722a3daafe3b4186f6b6457e060405160405180910390a3505050565b60008061068d6106d2565b90508091505090565b61069e6106fd565b6106a78161073d565b50565b60007f9016d09d72d40fdae2fd8ceac6b6234c7706214fd39c1cd1e609a0528c199300905090565b60007ff0c57e16840df040f15088dc2f81fe391c3923bec73e23a9662efc9c229c6a0060001b905090565b6107056107c3565b61073b576040517fd7e6bcf800000000000000000000000000000000000000000000000000000000815260040160405180910390fd5b565b6107456106fd565b600073ffffffffffffffffffffffffffffffffffffffff168173ffffffffffffffffffffffffffffffffffffffff16036107b75760006040517f1e4fbdf70000000000000000000000000000000000000000000000000000000081526004016107ae9190610858565b60405180910390fd5b6107c0816105ab565b50565b60006107cd610682565b60000160089054906101000a900460ff16905090565b6000819050919050565b6107f6816107e3565b82525050565b600060208201905061081160008301846107ed565b92915050565b600073ffffffffffffffffffffffffffffffffffffffff82169050919050565b600061084282610817565b9050919050565b61085281610837565b82525050565b600060208201905061086d6000830184610849565b92915050565b600080fd5b61088181610837565b811461088c57600080fd5b50565b60008135905061089e81610878565b92915050565b6000602082840312156108ba576108b9610873565b5b60006108c88482850161088f565b91505092915050565b7f4e487b7100000000000000000000000000000000000000000000000000000000600052601160045260246000fd5b600061090b826107e3565b9150610916836107e3565b925082820190508082111561092e5761092d6108d1565b5b92915050565b600082825260208201905092915050565b7f57494347414d453a203620686f757220636f6f6c646f776e206e6f74206d6574600082015250565b600061097b602083610934565b915061098682610945565b602082019050919050565b600060208201905081810360008301526109aa8161096e565b9050919050565b60006109bc826107e3565b91507fffffffffffffffffffffffffffffffffffffffffffffffffffffffffffffffff82036109ee576109ed6108d1565b5b600182019050919050565b6000819050919050565b600067ffffffffffffffff82169050919050565b6000819050919050565b6000610a3c610a37610a32846109f9565b610a17565b610a03565b9050919050565b610a4c81610a21565b82525050565b6000602082019050610a676000830184610a43565b9291505056fea26469706673582212201c4049f36cb9515b1628af7a6ec26db33abbdaa4022fb2ea654a6a0194dd0b8664736f6c63430008140033",
  "linkReferences": {},
  "deployedLinkReferences": {}
}